S0100000504F53544C4142362E73726563C9
S11300000C9434000C9449000C9449000C9449005D
S11300100C9449000C9449000C9449000C94490038
S11300200C9449000C9449000C9449000C94490028
S11300300C9449000C9449000C9449000C94490018
S11300400C9449000C9449000C9449000C94490008
S11300500C9449000C9449000C9449000C944900F8
S11300600C9449000C94490011241FBECFEFD8E032
S1130070DEBFCDBF11E0A0E0B1E0E4E6F2E002C0F3
S113008005900D92A43DB107D9F70E94A7000C94E6
S113009030010C9400009093C5008093C40088E163
S11300A08093C10086E08093C20008959091C000BF
S11300B095FFFCCF8093C6000895CF93DF93EC01A6
S11300C003C021960E94560088818111FACFDF91E6
S11300D0CF9108958091C0008823E4F78091C600F1
S11300E00895CF93DF9300D000D000D0CDB7DEB712
S11300F04AE0BE016F5F7F4F0E94FB00CE01019674
S11301000E945D0026960FB6F894DEBF0FBECDBFE9
S1130110DF91CF91089580E480937C0086E88093FA
S11301207A000895ECE7F0E09081907F8F70892B3E
S11301308083EAE7F0E080818064808380917A00A4
S113014086FDFCCF8091780090917900089587E630
S113015090E00E944B000E948B008FEF87B980E0F3
S113016091E00E945D0085E191E00E945D008DE2D6
S113017091E00E945D000E946A008133F9F48FE3EC
S113018091E00E945D0080E00E9492000E94710054
S113019081ED91E00E945D002FEF85EA9EE0215001
S11301A080409040E1F700C000008091C0008823A7
S11301B054F70E946A00813731F7D1CF8233B1F40A
S11301C08CE791E00E945D000E946A00C82F81378D
S11301D031F288B986EB91E00E945D008C2F0E9479
S11301E0560081ED91E00E945D00EECF81EC91E03C
S11301F00E945D00B4CFBB274A3031F4992322F426
S1130200BDE2909581959F4F0C940701BB27FB019C
S11302105527AA27880F991FAA1FA41710F0A41BFB
S113022083955051B9F7A05DAA3308F0A95DA19355
S1130230009779F7B111B1931192CB010C9420017D
S1130240DC01FC01672F71917723E1F7329704C039
S11302507C916D9370836291AE17BF07C8F30895C4
S1070260F894FFCF3C
S11302640A456C696A6120756E61206F7063696FF9
S11302746E3A0D0A00312E204C65657220506F745D
S1130284656E63696F6D6574726F0D0A00322E209A
S1130294456E766961722041534349490D0A0056FB
S11302A4616C6F722064656C20706F74656E636931
S11302B46F6D6574726F2028302D31303233292EDE
S11302C42050726573696F6E6520277127207061F1
S11302D472612073616C69723A0D0A00456E766925
S11302E46520756E20636172616374657220706148
S11302F47261206D6F737472617220656E204C4557
S113030444732E2027712720706172612073616CFD
S113031469723A0D0A00526563696269646F3A202E
S1130324004F7063696F6E20696E76616C696461F5
S10703342E0D0A007C
S9030000FC
